:020000020000FC
:0200000055C0E9
:0400100091D01895DE
:020044008ED05C
:1000AC000FEF0DBF0AE00EBF0FEF04B900E005B96A
:1000BC00279A249A2F9A2C9A00E00AB90FEF0BB9C1
:1000CC0008E00093690008E00DBB279A00E004BD2E
:1000DC0005E005BD259A269A01EA009380000BE005
:1000EC00009381000FEF0093880000938A0040E09A
:1000FC00789409B1007506FF1DD004FF0FD0F9CF1D
:10010C0001E1049F0FEF00190093880000938A000F
:10011C0003B1007F042B006905B908954F3019F025
:10012C004395EEDF0DD008954FE0EADF0CB3086085
:10013C000CBB0895403019F04A95E2DF01D00895C8
:10014C0012E302EB06BD25B32170E9F321E025BBD8
:0E015C001A95B9F7089503B11D9A18950895E4
:00000001FF
